:100000009BC00000B5C00000B3C00000B1C000003C
:10001000AFC00000ADC00000ABC00000A9C0000030
:10002000A7C00000A5C00000F4C40000B8C50000CF
:100030009FC000009DC000009BC0000099C0000050
:1000400097C0000095C0000093C0000091C0000060
:100050008FC000008DC000008BC0000089C0000070
:1000600087C0000085C0000083C0000081C0000080
:100070007FC000007DC000007BC0000079C0000090
:1000800077C0000075C0000073C0000071C00000A0
:100090006FC000006DC000006BC0000069C00000B0
:1000A00067C0000065C0000063C000001C034C0076
:1000B000550046004100200043004400430020005A
:1000C000440065006D006F000000180344006500E7
:1000D00061006E002000430061006D006500720049
:1000E000610000000403090409023E00020100C08F
:1000F000320904000001020201000524001001047D
:100100002402060524060001070582030800FF09F2
:10011000040100020A0000000705040210000507A0
:100120000583021000051201100102000008EB0314
:10013000442001000102DC0111241FBECFEFDAE0F0
:10014000DEBFCDBF11E0A0E0B1E0E8EFF7E102C013
:1001500005900D92AC32B107D9F721E0ACE2B1E0E5
:1001600001C01D92A833B207E1F723D00C94FA0B1B
:1001700047CF84B7877F84BF88E10FB6F894809318
:100180006000109260000FBE90E080E80FB6F89417
:1001900080936100909361000FBE209A289A559A2F
:1001A0005D9A509A519A1092BC0083E08093B800F7
:1001B00013C4CF93DF93CDB7DEB76D970FB6F89426
:1001C000DEBF0FBECDBFD5DF78941D8EAE01435E7E
:1001D0005F4F6AE08EE18AD1813019F48D8D8834C9
:1001E00019F05D9A2898FFCF48E760E08EE1A9D02A
:1001F00040EE61E08EE1A5D040E062E08EE1A1D06A
:100200008BE1682E81E0782E94E1592EEE24E39460
:10021000F12CEC0EFD1E45C05D9880E091E032D7D8
:100220000A97C1F51C8E8E01045E1F4F26E0AE01B9
:100230004A5E5F4F63E08EE1C6D0D88CC12C898DB9
:100240009601280F311DC9019F932F93BA8CA12CC1
:100250008B8D9501280F311DC9019F932F939E8887
:10026000812C8F899401280F311DC9019F932F93F1
:100270007F926F921F925F92FF92EF92EAD742E1D4
:1002800050E0B70180E091E06DD60FB6F894DEBF84
:100290000FBECDBF8FE19EE40197F1F700C00000D3
:1002A0005D9A80E091E0BFD6892B09F0B5CF80E060
:1002B00091E0A4D617D6F5CF0895089580E091E097
:1002C0002CC680E091E015C7292F33272230310555
:1002D00039F02330310549F02130310521F128C0B2
:1002E000EEE3F0E088EE90E027C099278130910599
:1002F00061F08230910581F0892BD1F4E4EEF0E0D9
:10030000E491F0E084EE90E017C0EAECF0E0E491D4
:10031000F0E08AEC90E010C0ECEAF0E0E491F0E06C
:100320008CEA90E009C0E2E1F0E086E291E004C0EE
:10033000E0E0F0E080E090E0DA018D939C93CF0163
:10034000089594EA9093BC009091BC0097FFFCCF75
:100350009091B900987F983009F02DC0880F809354
:10036000BB0084E88093BC008091BC0087FFFCCF79
:100370008091B900887F883109F01DC06093BB006F
:1003800084E88093BC008091BC0087FFFCCF809103
:10039000B900887F883209F00EC04093BB0084E822
:1003A0008093BC008091BC0087FFFCCF8091B90096
:1003B000887F883219F08091B900089584E980938C
:1003C000BC0081E008950F931F93F80110821092F2
:1003D000BC0094EA9093BC009091BC0097FFFCCFC6
:1003E0009091B900987F983009F06DC0982F990FBF
:1003F0009093BB0094E89093BC009091BC0097FF51
:10040000FCCF9091B900987F983109F05CC060935F
:10041000BB0094E89093BC009091BC0097FFFCCF88
:100420009091B900987F983209F04DC094EA90936A
:10043000BC009091BC0097FFFCCF9091B900987FD1
:10044000903109F040C090E0880F991F816080933F
:10045000BB0084E88093BC008091BC0087FFFCCF88
:100460008091B900887F8034C1F02DC07093BC00AA
:100470008091BC0087FFFCCF8091B900887F8035D8
:1004800009F021C08091BB00DA01A60FB11D8C9349
:1004900080818F5F80836F5F05C060E030E0215016
:1004A000310974EC862F90E082179307FCF284E800
:1004B0008093BC008091BC0087FFFCCF8091B90085
:1004C000887F883519F08091B9000DC08091BB00FC
:1004D000DA01A60FB11D8C9380818F5F808384E940
:1004E0008093BC0081E01F910F910895FA01108262
:1004F0001092BC0094EA9093BC009091BC0097FFCE
:10050000FCCF9091B900987F983009F04CC0982F9B
:10051000990F9093BB0094E89093BC009091BC001D
:1005200097FFFCCF9091B900987F983109F03BC0BC
:100530006093BB0094E89093BC009091BC0097FF3F
:10054000FCCF9091B900987F983209F02CC094EAC2
:100550009093BC009091BC0097FFFCCF9091B900A4
:10056000987F903109F01FC090E0880F991F81603B
:100570008093BB0084E88093BC008091BC0087FF1F
:10058000FCCF8091B900887F803409F00CC084E8EA
:100590008093BC008091BC0087FFFCCF8091B900A4
:1005A000887F883519F08091B900089584E9809397
:1005B000BC008091BB00FA01808381E00895BF9266
:1005C000CF92DF92EF92FF920F931F93CF93DF931F
:1005D0007C018B01EA0190D1B82E811132C02097A5
:1005E00031F028813981021B130BE20EF31EC12C5E
:1005F000D12C22C08091E80085FD14C08091E800D4
:100600008E778093E800209749F0888199818C0D3E
:100610009D1D9983888325E0B22E13C06DD1882358
:1006200059F00EC0F70181917F018093F1000150D4
:100630001109FFEFCF1ADF0A01151105D9F601C024
:10064000B82E8B2DDF91CF911F910F91FF90EF90DE
:10065000DF90CF90BF9008954091360150913701BF
:100660004617570748F06115710539F44091E800C5
:100670004E774093E80001C0BA01FC0140E032C06F
:100680008EB3882309F441C0853009F440C08091BD
:10069000E80083FD38C08091E80082FD2EC0809183
:1006A000E80080FF1FC09091F3008091F200392F85
:1006B00020E0A901482BCA0106C041914093F100F6
:1006C0006150710901966115710519F08830910525
:1006D000A0F341E0089709F040E08091E8008E77B0
:1006E0008093E8006115710559F64111C9CF05C025
:1006F0008EB3882351F0853051F08091E80082FF5D
:10070000F7CF80E0089581E0089582E0089583E0C6
:10071000089540913601509137014617570748F028
:100720006115710539F44091E8004E774093E80077
:1007300001C0BA01FC0140E033C08EB3882309F444
:1007400042C0853009F441C08091E80083FD39C082
:100750008091E80082FD2FC08091E80080FF20C0DA
:100760009091F3008091F200392F20E0A901482BED
:10077000CA0107C044914093F1003196615071095C
:1007800001966115710519F08830910598F341E0E3
:10079000089709F040E08091E8008E778093E800A8
:1007A0006115710551F64111C8CF05C08EB388237C
:1007B00051F0853051F08091E80082FFF7CF80E062
:1007C000089581E0089582E0089583E00895982FC8
:1007D0002CC09093E900981739F07091EC002091AB
:1007E000ED005091F00003C0242F762F50E021FD42
:1007F00002C09F5F1AC03091EB003E7F3093EB0048
:100800003091ED003D7F3093ED003091EB00316091
:100810003093EB007093EC002093ED005093F000C8
:100820002091EE0027FDE5CF07C0973090F28F7042
:100830008093E90081E0089580E008950F931F936D
:10084000CF93DF93062FEC0110E02FC09881911118
:1008500003C01F5F259629C02C81E981FA817B8125
:10086000892F8F70873010F080E022C0223010F086
:1008700056E001C052E028E030E040E003C04F5FA6
:10088000220F331F2E173F07D0F34295407F452B91
:10089000692F661F6627661F90E4799F90011124D7
:1008A000622B95DF8111D5CFDFCF1013CFCF81E041
:1008B000DF91CF911F910F9108958091300187FDB5
:1008C00005C08091E80080FF0DC010C08091E80055
:1008D00082FD04C08EB38111F9CF08958091E800A4
:1008E0008B7707C08EB38111ECCF08958091E8001B
:1008F0008E778093E80008958091E4009091E50060
:1009000045E62091EC0020FD1EC022C02EB322231C
:1009100091F0253091F02091EB0025FD10C0209141
:10092000E4003091E5002817390759F34150C90117
:1009300041F784E0089582E0089583E0089581E01E
:10094000089580E008952091E80020FFDFCFF9CFDF
:100950002091E80022FFDACFF4CF0F931F93CF93BB
:10096000DF934AD051D0C8EDD0E088818F7788835B
:1009700088818068888388818F7D888319BC1EBAAE
:1009800010922C0110922E0110922D0100EE10E019
:10099000F80180818B7F808388818160888342E039
:1009A00060E080E014DFE1EEF0E080818E7F808304
:1009B000E2EEF0E0808181608083808188608083C6
:1009C000F80180818E7F8083888180618883DF91B8
:1009D000CF911F910F910895E8EDF0E080818F7E17
:1009E0008083E7EDF0E080818160808384E082BFD6
:1009F00081E080932F01B1CFE8EDF0E080818E7F20
:100A000080831092E20008951092DA001092E100C3
:100A100008951F920F920FB60F9211242F933F93B8
:100A20004F935F936F937F938F939F93AF93BF93F6
:100A3000EF93FF938091E10082FF0AC08091E20072
:100A400082FF06C08091E1008B7F8093E10049D254
:100A50008091DA0080FF1BC08091D80080FF17C012
:100A60008091DA008E7F8093DA008091D90080FF38
:100A70000BC080E189BD82E189BD09B400FEFDCFD4
:100A800081E08EBB19DC03C019BC1EBA16DC809154
:100A9000E10080FF17C08091E20080FF13C08091C9
:100AA000E2008E7F8093E2008091E200806180937B
:100AB000E2008091D80080628093D80019BC85E064
:100AC0008EBB0FD28091E10084FF2EC08091E200A6
:100AD00084FF2AC080E189BD82E189BD09B400FE9E
:100AE000FDCF8091D8008F7D8093D8008091E10068
:100AF0008F7E8093E1008091E2008F7E8093E20000
:100B00008091E20081608093E20080912C01882333
:100B100011F084E007C08091E30087FF02C083E00A
:100B200001C081E08EBBDDD18091E10083FF26C052
:100B30008091E20083FF22C08091E100877F809353
:100B4000E10082E08EBB10922C018091E1008E7F4B
:100B50008093E1008091E2008E7F8093E20080919B
:100B6000E20080618093E20042E060E080E02FDEFE
:100B70008091F00088608093F000B3D1FF91EF91F5
:100B8000BF91AF919F918F917F916F915F914F91A5
:100B90003F912F910F900FBE0F901F9018951F92AD
:100BA0000F920FB60F9211242F933F934F935F93A1
:100BB0006F937F938F939F93AF93BF93CF93EF9355
:100BC000FF938091E9008F709091EC0090FF02C03C
:100BD00090E801C090E0C92FC82B1092E9008091E5
:100BE000F000877F8093F00078941CD01092E90089
:100BF0008091F00088608093F000CF70C093E9008E
:100C0000FF91EF91CF91BF91AF919F918F917F9184
:100C10006F915F914F913F912F910F900FBE0F9069
:100C20001F9018951F93CF93DF93CDB7DEB7AC9786
:100C30000FB6F894DEBF0FBECDBFE0E3F1E08091C8
:100C4000F100819321E0E833F207C9F73ADB8091A4
:100C5000E80083FF2EC180913001909131019530E1
:100C600009F487C038F49130B1F170F0933009F095
:100C700020C131C0983009F4F2C0993009F4FEC0A7
:100C8000963009F016C19AC0803821F0823809F0F8
:100C900010C108C080912D0190912E01992389F0F7
:100CA00082600FC080913401909135018F70992737
:100CB0008093E9008091EB0085FB882780F91092F2
:100CC000E9009091E800977F9093E8008093F1000D
:100CD0001092F100CFC0882319F0823009F0E9C0EA
:100CE0008F7121F0823009F0E4C00BC08091320195
:100CF000813009F0DEC0933009F080E080932E014E
:100D00002FC08091320181112BC0809134019091CC
:100D100035018F709927009709F4CBC08093E900C3
:100D20002091EB0020FF1CC020913101233021F4E1
:100D30008091EB00806212C09091EB0090619093E3
:100D4000EB0021E030E001C0220F8A95EAF7209302
:100D5000EA001092EA008091EB0088608093EB003B
:100D60001092E9008091E800877F8093E800A5DD7C
:100D7000A0C081119EC080913201909133018F7784
:100D80009927182F9091E3009078982B9093E30087
:100D90008091E800877F8093E8008FDD8091E800F4
:100DA00080FFFCCF8091E30080688093E3001123F3
:100DB00011F083E001C082E08EBB7BC0805882309E
:100DC00008F077C080913201909133018C3D23E08F
:100DD000920771F583E08A838AE289834FB7F8949A
:100DE000DE01139620E03EE051E2E32FF0E0509365
:100DF0005700E49120FF03C0E295EF703F5FEF7072
:100E00008E2F90E0EA3010F0C79601C0C0968D9307
:100E10009D932F5F243149F74FBF8091E800877F72
:100E20008093E8006AE270E0CE01019615DC11C003
:100E3000AE01455D5F4F6091340146DA0097C9F11C
:100E40002091E800277F2093E800BC018BA59CA59A
:100E500060DC8091E8008B778093E8002AC08038BE
:100E600041F58091E800877F8093E80080912C0114
:100E70008093F1008091E8008E7777CF811119C0BF
:100E8000909132019230A8F48091E800877F80939E
:100E9000E80090932C0111DD80912C01811104C098
:100EA0008091E30087FF02C084E001C081E08EBB37
:100EB00005DA8091E80083FF0AC08091E800877F0F
:100EC0008093E8008091EB0080628093EB00AC9609
:100ED0000FB6F894DEBF0FBECDBFDF91CF911F914B
:100EE00008950895CF938EB38823A9F08091E900E7
:100EF0008F709091EC0090FF02C090E801C090E0EC
:100F0000C92FC82B1092E9008091E80083FD8ADE8A
:100F1000CF70C093E900CF910895CF93DF93EC0198
:100F20004096FC018BE0DF011D928A95E9F782E093
:100F30008C83898783E08E8761E0CE0101967EDC19
:100F4000882361F061E0CE01069678DC882331F0D9
:100F500061E0CE010B96DF91CF9170CC80E0DF9104
:100F6000CF9108950F931F93FC01CB01BA012EB3CB
:100F7000243089F40489158926893789012B022BAD
:100F8000032B49F021812F702093E90040E050E0CD
:100F90001F910F9114CB82E01F910F9108952EB3F2
:100FA000243051F5FC014489558966897789452BA0
:100FB000462B472B09F181818F708093E900309196
:100FC000F3002091F200932F80E0822B892B11F403
:100FD00080E008959091E8008091E8008E778093FA
:100FE000E80095FDF5CF88DC811107C09091E800FD
:100FF0009E779093E800089582E008952EB3243000
:1010000089F4FC014489558966897789452B462BEB
:10101000472B41F021812F702093E9002091E800B7
:1010200020FDBDCF08952EB3243009F01FC0FC0170
:101030004489558966897789452B462B472BB1F022
:1010400086818F708093E9008091E80082FF0EC056
:101050003091F3002091F200932F80E0822B892BB6
:1010600041F48091E8008B778093E80020E030E045
:1010700007C09091F3008091F200392F20E0282BD7
:10108000C90108952EB3243019F02FEF3FEF2EC081
:10109000FC014489558966897789452B462B472B66
:1010A000A1F386818F708093E9008091E80082FF30
:1010B000ECCF3091F3002091F200932F80E0822B4F
:1010C000892B21F02091F10030E002C02FEF3FEF9B
:1010D0005091F3004091F200952F80E0842B892BF2
:1010E00029F48091E8008B778093E800C901089586
:1010F0000895CF93DF93EC018091E80083FFA6C0B1
:10110000888190E02091340130913501281739070A
:1011100009F09CC080913101813261F020F480326D
:1011200009F094C03DC0823209F46CC0833209F0EA
:101130008DC07CC080913001813A09F087C08091D8
:10114000E800877F8093E8008091E80080FFFCCF73
:101150004C895D896E897F894093F100BB27A72F59
:10116000962F852F8093F100CB01AA27BB27809370
:10117000F100472F5527662777274093F100888D88
:101180008093F100898D8093F1008A8D8093F10026
:101190008091E8008E778093E800DF91CF918DCB2E
:1011A00080913001813209F051C08091E800877F41
:1011B0008093E80004C08EB3882309F447C080916F
:1011C000E80082FFF8CF3091F1002091F10090917A
:1011D000F1008091F1003C8B2D8B9E8B8F8B809149
:1011E000F100888F8091F100898F8091F1008A8FC2
:1011F0008091E8008B778093E8005FDBCE01DF9180
:10120000CF9176CF80913001813201F58091E80055
:10121000877F8093E80051DB809132019091330108
:10122000998B888BCE01DF91CF9162CF8091300175
:10123000813261F48091E800877F8093E8003DDB94
:1012400060913201CE01DF91CF9152CFDF91CF91EA
:101250000895AEE0B0E0EEE2F9E0A3C20D891E8988
:101260008F89988D26E02C831A83098397FF02C00B
:1012700080E090E801979E838D83CE014B96AC0170
:10128000698D7A8DCE01019611D04D815E8157FD19
:101290000AC02F813885421753070CF49A01F801D0
:1012A000E20FF31F10822E96E4E097C2ACE0B0E0AC
:1012B000EBE5F9E068C27C016B018A01FC01178251
:1012C0001682838181FFB9C188248394912C8C0E6E
:1012D0009D1EF7019381F60193FD859193FF819106
:1012E0006F01882309F4A5C1853239F493FD8591F6
:1012F00093FF81916F01853221F4B70190E0B9D15C
:10130000E8CF512C312C20E02032A8F48B3261F050
:1013100028F4803251F0833271F40BC08D3239F0F1
:10132000803349F4216028C02260246025C02860F1
:1013300023C0206121C027FD27C0382F30533A3009
:1013400078F426FF06C0FAE05F9E300D1124532E7C
:1013500013C08AE0389E300D1124332E20620CC059
:101360008E3221F426FD65C1206406C08C3611F44E
:10137000206802C0883641F4F60193FD859193FF01
:1013800081916F018111C0CF982F9554933018F03F
:101390009052933028F40C5F1F4FFFE3F9830DC088
:1013A000833631F0833771F0833509F05AC022C09B
:1013B000F801808189830E5F1F4F44244394512C90
:1013C000540114C03801F2E06F0E711CF801A080C6
:1013D000B18026FF03C0652D70E002C06FEF7FEF84
:1013E000C5012C873BD12C0183012C856FE7262E6C
:1013F000222217C03801F2E06F0E711CF801A080A4
:10140000B18026FF03C0652D70E002C06FEF7FEF53
:10141000C5012C8718D12C012C8550E8252E222AB5
:10142000830123FC1AC005C0B70180E290E021D1FE
:101430003A94832D90E048165906B0F30EC0F5019A
:1014400027FC859127FE81915F01B70190E011D1C2
:1014500031103A94F1E04F1A51084114510479F7D0
:10146000E5C0843611F0893639F5F80127FF07C049
:1014700060817181828193810C5F1F4F08C0608100
:101480007181882777FD8095982F0E5F1F4F4FE65B
:10149000B42EB22297FF09C0909580957095619502
:1014A0007F4F8F4F9F4FF0E8BF2A2AE030E0A40122
:1014B0000CD1A82EA81842C0853731F43FEEB32EC8
:1014C000B2222AE030E024C099EFB92EB2228F3642
:1014D000B9F020F4883509F0ACC00DC0803721F098
:1014E000883709F0A6C002C020E1B22AB4FE0BC0C2
:1014F00084E0B82A08C024FF09C0E6E0BE2A06C07E
:1015000028E030E005C020E130E002C020E132E018
:10151000F801B7FE07C060817181828193810C5F01
:101520001F4F06C06081718180E090E00E5F1F4F09
:10153000A401CBD0A82EA818FFE7BF22B6FE0BC08F
:101540002B2D2E7FA51450F4B4FE0AC0B2FC08C0A7
:101550002B2D2E7E05C07A2C2B2D03C07A2C01C09A
:10156000752C24FF0DC0FE01EA0DF11D8081803332
:1015700011F4297E09C022FF06C07394739404C03D
:10158000822F867809F0739423FD13C020FF0EC0CC
:101590005A2C731458F4530C5718732C07C0B70106
:1015A00080E290E02C8765D073942C857314B8F397
:1015B00004C0731410F4371801C0312C24FF11C07B
:1015C000B70180E390E02C8754D02C8522FF1CC00B
:1015D00021FF03C088E590E002C088E790E0B701F2
:1015E0000CC0822F867881F021FD02C080E201C00C
:1015F0008BE227FD8DE2B70190E03BD005C0B7013B
:1016000080E390E036D05A94A514C8F3AA94F4016C
:10161000EA0DF11DB701808190E02BD0A110F6CF2B
:1016200005C0B70180E290E024D03A943110F9CFA0
:1016300050CEF7012681378102C02FEF3FEFC9015D
:101640002C96E2E1BCC0FC01059061507040011095
:10165000D8F7809590958E0F9F1F0895FC016150DB
:10166000704001900110D8F7809590958E0F9F1FC4
:1016700008950F931F93CF93DF938C01EB018B8120
:1016800081FD03C00FEF1FEF1AC082FF0DC02E8136
:101690003F818C819D812817390764F4E881F981A5
:1016A0000193F983E88306C0E885F985802F0995C1
:1016B000892B41F78E819F8101969F838E83C8017C
:1016C000DF91CF911F910F910895FA01AA27283039
:1016D00051F1203181F1E8946F936E7F6E5F7F4FFF
:1016E0008F4F9F4FAF4FB1E03ED0B4E03CD0670F7B
:1016F000781F891F9A1FA11D680F791F8A1F911DCE
:10170000A11D6A0F711D811D911DA11D20D009F41D
:1017100068943F912AE0269F11243019305D31935F
:10172000DEF6CF010895462F4770405D4193B3E048
:101730000FD0C9F7F6CF462F4F70405D4A3318F0EF
:10174000495D31FD4052419302D0A9F7EACFB4E0A0
:10175000A6959795879577956795BA95C9F7009758
:101760006105710508959B01AC010A2E06945795F9
:10177000479537952795BA95C9F7620F731F841F50
:10178000951FA01D08952F923F924F925F926F92E6
:101790007F928F929F92AF92BF92CF92DF92EF9201
:1017A000FF920F931F93CF93DF93CDB7DEB7CA1B82
:1017B000DB0B0FB6F894DEBF0FBECDBF09942A88AD
:1017C000398848885F846E847D848C849B84AA8455
:1017D000B984C884DF80EE80FD800C811B81AA81E2
:1017E000B981CE0FD11D0FB6F894DEBF0FBECDBFAD
:0817F000ED010895F894FFCF0C
:1017F80000831000000104100000018208000001AD
:101808000000000000000000000000253035642CB6
:0C181800253035642C253035640A0000B2
:00000001FF
